{
  "contractName": "Zombax",
  "abi": [
    {
      "inputs": [],
      "stateMutability": "nonpayable",
      "type": "constructor"
    },
    {
      "anonymous": false,
      "inputs": [
        {
          "indexed": true,
          "internalType": "address",
          "name": "owner",
          "type": "address"
        },
        {
          "indexed": true,
          "internalType": "address",
          "name": "approved",
          "type": "address"
        },
        {
          "indexed": true,
          "internalType": "uint256",
          "name": "tokenId",
          "type": "uint256"
        }
      ],
      "name": "Approval",
      "type": "event",
      "stateMutability": "nonpayable"
    },
    {
      "anonymous": false,
      "inputs": [
        {
          "indexed": true,
          "internalType": "address",
          "name": "owner",
          "type": "address"
        },
        {
          "indexed": true,
          "internalType": "address",
          "name": "operator",
          "type": "address"
        },
        {
          "indexed": false,
          "internalType": "bool",
          "name": "approved",
          "type": "bool"
        }
      ],
      "name": "ApprovalForAll",
      "type": "event",
      "stateMutability": "nonpayable"
    },
    {
      "anonymous": false,
      "inputs": [
        {
          "indexed": true,
          "internalType": "address",
          "name": "previousOwner",
          "type": "address"
        },
        {
          "indexed": true,
          "internalType": "address",
          "name": "newOwner",
          "type": "address"
        }
      ],
      "name": "OwnershipTransferred",
      "type": "event",
      "stateMutability": "nonpayable"
    },
    {
      "anonymous": false,
      "inputs": [
        {
          "indexed": true,
          "internalType": "address",
          "name": "from",
          "type": "address"
        },
        {
          "indexed": true,
          "internalType": "address",
          "name": "to",
          "type": "address"
        },
        {
          "indexed": true,
          "internalType": "uint256",
          "name": "tokenId",
          "type": "uint256"
        }
      ],
      "name": "Transfer",
      "type": "event",
      "stateMutability": "nonpayable"
    },
    {
      "inputs": [
        {
          "internalType": "address",
          "name": "to",
          "type": "address"
        },
        {
          "internalType": "uint256",
          "name": "tokenId",
          "type": "uint256"
        }
      ],
      "name": "approve",
      "outputs": [],
      "stateMutability": "nonpayable",
      "type": "function"
    },
    {
      "inputs": [
        {
          "internalType": "address",
          "name": "owner",
          "type": "address"
        }
      ],
      "name": "balanceOf",
      "outputs": [
        {
          "internalType": "uint256",
          "name": "",
          "type": "uint256"
        }
      ],
      "stateMutability": "view",
      "type": "function"
    },
    {
      "inputs": [],
      "name": "getAllOnSale",
      "outputs": [
        {
          "components": [
            {
              "internalType": "uint256",
              "name": "id",
              "type": "uint256"
            },
            {
              "internalType": "uint256",
              "name": "price",
              "type": "uint256"
            },
            {
              "internalType": "string",
              "name": "name",
              "type": "string"
            },
            {
              "internalType": "string",
              "name": "uri",
              "type": "string"
            },
            {
              "internalType": "bool",
              "name": "isOnSale",
              "type": "bool"
            }
          ],
          "internalType": "struct Zombax.TokenMeta[]",
          "name": "",
          "type": "tuple[]"
        }
      ],
      "stateMutability": "view",
      "type": "function"
    },
    {
      "inputs": [
        {
          "internalType": "uint256",
          "name": "tokenId",
          "type": "uint256"
        }
      ],
      "name": "getApproved",
      "outputs": [
        {
          "internalType": "address",
          "name": "",
          "type": "address"
        }
      ],
      "stateMutability": "view",
      "type": "function"
    },
    {
      "inputs": [],
      "name": "getTokensOwnedByMe",
      "outputs": [
        {
          "internalType": "uint256[]",
          "name": "",
          "type": "uint256[]"
        }
      ],
      "stateMutability": "view",
      "type": "function"
    },
    {
      "inputs": [
        {
          "internalType": "address",
          "name": "owner",
          "type": "address"
        },
        {
          "internalType": "address",
          "name": "operator",
          "type": "address"
        }
      ],
      "name": "isApprovedForAll",
      "outputs": [
        {
          "internalType": "bool",
          "name": "",
          "type": "bool"
        }
      ],
      "stateMutability": "view",
      "type": "function"
    },
    {
      "inputs": [
        {
          "internalType": "address",
          "name": "_owner",
          "type": "address"
        },
        {
          "internalType": "string",
          "name": "_tokenURI",
          "type": "string"
        },
        {
          "internalType": "string",
          "name": "_name",
          "type": "string"
        },
        {
          "internalType": "uint256",
          "name": "_price",
          "type": "uint256"
        },
        {
          "internalType": "bool",
          "name": "_isOnSale",
          "type": "bool"
        }
      ],
      "name": "mintCollectable",
      "outputs": [
        {
          "internalType": "uint256",
          "name": "",
          "type": "uint256"
        }
      ],
      "stateMutability": "nonpayable",
      "type": "function"
    },
    {
      "inputs": [],
      "name": "name",
      "outputs": [
        {
          "internalType": "string",
          "name": "",
          "type": "string"
        }
      ],
      "stateMutability": "view",
      "type": "function"
    },
    {
      "inputs": [],
      "name": "owner",
      "outputs": [
        {
          "internalType": "address",
          "name": "",
          "type": "address"
        }
      ],
      "stateMutability": "view",
      "type": "function"
    },
    {
      "inputs": [
        {
          "internalType": "uint256",
          "name": "tokenId",
          "type": "uint256"
        }
      ],
      "name": "ownerOf",
      "outputs": [
        {
          "internalType": "address",
          "name": "",
          "type": "address"
        }
      ],
      "stateMutability": "view",
      "type": "function"
    },
    {
      "inputs": [
        {
          "internalType": "uint256",
          "name": "_tokenId",
          "type": "uint256"
        }
      ],
      "name": "purchaseToken",
      "outputs": [],
      "stateMutability": "payable",
      "type": "function"
    },
    {
      "inputs": [],
      "name": "renounceOwnership",
      "outputs": [],
      "stateMutability": "nonpayable",
      "type": "function"
    },
    {
      "inputs": [
        {
          "internalType": "address",
          "name": "from",
          "type": "address"
        },
        {
          "internalType": "address",
          "name": "to",
          "type": "address"
        },
        {
          "internalType": "uint256",
          "name": "tokenId",
          "type": "uint256"
        }
      ],
      "name": "safeTransferFrom",
      "outputs": [],
      "stateMutability": "nonpayable",
      "type": "function"
    },
    {
      "inputs": [
        {
          "internalType": "address",
          "name": "from",
          "type": "address"
        },
        {
          "internalType": "address",
          "name": "to",
          "type": "address"
        },
        {
          "internalType": "uint256",
          "name": "tokenId",
          "type": "uint256"
        },
        {
          "internalType": "bytes",
          "name": "data",
          "type": "bytes"
        }
      ],
      "name": "safeTransferFrom",
      "outputs": [],
      "stateMutability": "nonpayable",
      "type": "function"
    },
    {
      "inputs": [
        {
          "internalType": "address",
          "name": "operator",
          "type": "address"
        },
        {
          "internalType": "bool",
          "name": "approved",
          "type": "bool"
        }
      ],
      "name": "setApprovalForAll",
      "outputs": [],
      "stateMutability": "nonpayable",
      "type": "function"
    },
    {
      "inputs": [
        {
          "internalType": "string",
          "name": "_newBaseURI",
          "type": "string"
        }
      ],
      "name": "setBaseURI",
      "outputs": [],
      "stateMutability": "nonpayable",
      "type": "function"
    },
    {
      "inputs": [
        {
          "internalType": "uint256",
          "name": "_tokenId",
          "type": "uint256"
        },
        {
          "internalType": "uint256",
          "name": "_price",
          "type": "uint256"
        }
      ],
      "name": "setTokenPrice",
      "outputs": [],
      "stateMutability": "nonpayable",
      "type": "function"
    },
    {
      "inputs": [
        {
          "internalType": "uint256",
          "name": "_tokenId",
          "type": "uint256"
        },
        {
          "internalType": "bool",
          "name": "_isOnSale",
          "type": "bool"
        },
        {
          "internalType": "uint256",
          "name": "_price",
          "type": "uint256"
        }
      ],
      "name": "setTokenSale",
      "outputs": [],
      "stateMutability": "nonpayable",
      "type": "function"
    },
    {
      "inputs": [
        {
          "internalType": "bytes4",
          "name": "interfaceId",
          "type": "bytes4"
        }
      ],
      "name": "supportsInterface",
      "outputs": [
        {
          "internalType": "bool",
          "name": "",
          "type": "bool"
        }
      ],
      "stateMutability": "view",
      "type": "function"
    },
    {
      "inputs": [],
      "name": "symbol",
      "outputs": [
        {
          "internalType": "string",
          "name": "",
          "type": "string"
        }
      ],
      "stateMutability": "view",
      "type": "function"
    },
    {
      "inputs": [
        {
          "internalType": "uint256",
          "name": "_tokenId",
          "type": "uint256"
        }
      ],
      "name": "tokenMeta",
      "outputs": [
        {
          "components": [
            {
              "internalType": "uint256",
              "name": "id",
              "type": "uint256"
            },
            {
              "internalType": "uint256",
              "name": "price",
              "type": "uint256"
            },
            {
              "internalType": "string",
              "name": "name",
              "type": "string"
            },
            {
              "internalType": "string",
              "name": "uri",
              "type": "string"
            },
            {
              "internalType": "bool",
              "name": "isOnSale",
              "type": "bool"
            }
          ],
          "internalType": "struct Zombax.TokenMeta",
          "name": "",
          "type": "tuple"
        }
      ],
      "stateMutability": "view",
      "type": "function"
    },
    {
      "inputs": [
        {
          "internalType": "uint256",
          "name": "tokenId",
          "type": "uint256"
        }
      ],
      "name": "tokenURI",
      "outputs": [
        {
          "internalType": "string",
          "name": "",
          "type": "string"
        }
      ],
      "stateMutability": "view",
      "type": "function"
    },
    {
      "inputs": [
        {
          "internalType": "address",
          "name": "from",
          "type": "address"
        },
        {
          "internalType": "address",
          "name": "to",
          "type": "address"
        },
        {
          "internalType": "uint256",
          "name": "tokenId",
          "type": "uint256"
        }
      ],
      "name": "transferFrom",
      "outputs": [],
      "stateMutability": "nonpayable",
      "type": "function"
    },
    {
      "inputs": [
        {
          "internalType": "address",
          "name": "newOwner",
          "type": "address"
        }
      ],
      "name": "transferOwnership",
      "outputs": [],
      "stateMutability": "nonpayable",
      "type": "function"
    },
    {
      "inputs": [
        {
          "internalType": "uint256",
          "name": "_tokenId",
          "type": "uint256"
        },
        {
          "internalType": "string",
          "name": "_uri",
          "type": "string"
        }
      ],
      "name": "updateTokenUri",
      "outputs": [],
      "stateMutability": "nonpayable",
      "type": "function"
    }
  ],
  "bytecode": "0x60806040523480156200001157600080fd5b50d380156200001f57600080fd5b50d280156200002d57600080fd5b506040518060400160405280600f81526020017f5a6f6d62617820534d41534845527300000000000000000000000000000000008152506040518060400160405280600781526020017f534d4153484552000000000000000000000000000000000000000000000000008152508160009080519060200190620000b2929190620001c2565b508060019080519060200190620000cb929190620001c2565b505050620000ee620000e2620000f460201b60201c565b620000fc60201b60201c565b620002d7565b600033905090565b6000600660009054906101000a900473ffffffffffffffffffffffffffffffffffffffff16905081600660006101000a81548173ffffffffffffffffffffffffffffffffffffffff021916908373ffffffffffffffffffffffffffffffffffffffff1602179055508173ffffffffffffffffffffffffffffffffffffffff168173ffffffffffffffffffffffffffffffffffffffff167f8be0079c531659141344cd1fd0a4f28419497f9722a3daafe3b4186f6b6457e060405160405180910390a35050565b828054620001d09062000272565b90600052602060002090601f016020900481019282620001f4576000855562000240565b82601f106200020f57805160ff191683800117855562000240565b8280016001018555821562000240579182015b828111156200023f57825182559160200191906001019062000222565b5b5090506200024f919062000253565b5090565b5b808211156200026e57600081600090555060010162000254565b5090565b600060028204905060018216806200028b57607f821691505b60208210811415620002a257620002a1620002a8565b5b50919050565b7f4e487b7100000000000000000000000000000000000000000000000000000000600052602260045260246000fd5b6141ff80620002e76000396000f3fe6080604052600436106101665760003560e01c806370a08231116100d1578063b88d4fde1161008a578063d31af48411610064578063d31af48414610747578063e985e9c51461078a578063eb685c47146107e1578063f2fde38b1461082457610166565b8063b88d4fde14610691578063c2db2c42146106d4578063c87b56dd146106f057610166565b806370a08231146104f7578063715018a61461054e5780638da5cb5b1461057f57806390894559146105c457806395d89b4114610609578063a22cb4651461064e57610166565b806323b872dd1161012357806323b872dd1461033d57806339b444361461038057806342842e0e146103d757806355f804b31461041a5780636352211e1461045d5780636387ede6146104b457610166565b806301ffc9a71461016b57806306fdde03146101c2578063081812fc14610207578063095ea7b31461025e5780630a989d9c146102a15780630ae7a310146102e6575b600080fd5b34801561017757600080fd5b50d3801561018457600080fd5b50d2801561019157600080fd5b506101ac60048036038101906101a79190612f0b565b610867565b6040516101b991906136c6565b60405180910390f35b3480156101ce57600080fd5b50d380156101db57600080fd5b50d280156101e857600080fd5b506101f1610949565b6040516101fe91906136e1565b60405180910390f35b34801561021357600080fd5b50d3801561022057600080fd5b50d2801561022d57600080fd5b5061024860048036038101906102439190612fae565b6109db565b604051610255919061361b565b60405180910390f35b34801561026a57600080fd5b50d3801561027757600080fd5b50d2801561028457600080fd5b5061029f600480360381019061029a9190612ecb565b610a21565b005b3480156102ad57600080fd5b50d380156102ba57600080fd5b50d280156102c757600080fd5b506102d0610b39565b6040516102dd91906136a4565b60405180910390f35b3480156102f257600080fd5b50d380156102ff57600080fd5b50d2801561030c57600080fd5b5061032760048036038101906103229190612fae565b610c50565b60405161033491906138e3565b60405180910390f35b34801561034957600080fd5b50d3801561035657600080fd5b50d2801561036357600080fd5b5061037e60048036038101906103799190612d02565b610de2565b005b34801561038c57600080fd5b50d3801561039957600080fd5b50d280156103a657600080fd5b506103c160048036038101906103bc9190612e18565b610e42565b6040516103ce9190613905565b60405180910390f35b3480156103e357600080fd5b50d380156103f057600080fd5b50d280156103fd57600080fd5b5061041860048036038101906104139190612d02565b610f12565b005b34801561042657600080fd5b50d3801561043357600080fd5b50d2801561044057600080fd5b5061045b60048036038101906104569190612f65565b610f32565b005b34801561046957600080fd5b50d3801561047657600080fd5b50d2801561048357600080fd5b5061049e60048036038101906104999190612fae565b610f54565b6040516104ab919061361b565b60405180910390f35b3480156104c057600080fd5b50d380156104cd57600080fd5b50d280156104da57600080fd5b506104f560048036038101906104f09190612fdb565b610fdb565b005b34801561050357600080fd5b50d3801561051057600080fd5b50d2801561051d57600080fd5b5061053860048036038101906105339190612c95565b6110b4565b6040516105459190613905565b60405180910390f35b34801561055a57600080fd5b50d3801561056757600080fd5b50d2801561057457600080fd5b5061057d61116c565b005b34801561058b57600080fd5b50d3801561059857600080fd5b50d280156105a557600080fd5b506105ae611180565b6040516105bb919061361b565b60405180910390f35b3480156105d057600080fd5b50d380156105dd57600080fd5b50d280156105ea57600080fd5b506105f36111aa565b6040516106009190613682565b60405180910390f35b34801561061557600080fd5b50d3801561062257600080fd5b50d2801561062f57600080fd5b5061063861141c565b60405161064591906136e1565b60405180910390f35b34801561065a57600080fd5b50d3801561066757600080fd5b50d2801561067457600080fd5b5061068f600480360381019061068a9190612dd8565b6114ae565b005b34801561069d57600080fd5b50d380156106aa57600080fd5b50d280156106b757600080fd5b506106d260048036038101906106cd9190612d55565b6114c4565b005b6106ee60048036038101906106e99190612fae565b611526565b005b3480156106fc57600080fd5b50d3801561070957600080fd5b50d2801561071657600080fd5b50610731600480360381019061072c9190612fae565b611660565b60405161073e91906136e1565b60405180910390f35b34801561075357600080fd5b50d3801561076057600080fd5b50d2801561076d57600080fd5b506107886004803603810190610783919061302e565b6116c8565b005b34801561079657600080fd5b50d380156107a357600080fd5b50d280156107b057600080fd5b506107cb60048036038101906107c69190612cc2565b611750565b6040516107d891906136c6565b60405180910390f35b3480156107ed57600080fd5b50d380156107fa57600080fd5b50d2801561080757600080fd5b50610822600480360381019061081d919061308a565b6117e4565b005b34801561083057600080fd5b50d3801561083d57600080fd5b50d2801561084a57600080fd5b5061086560048036038101906108609190612c95565b611892565b005b60007f80ac58cd000000000000000000000000000000000000000000000000000000007bffffffffffffffffffffffffffffffffffffffffffffffffffffffff1916827bffffffffffffffffffffffffffffffffffffffffffffffffffffffff1916148061093257507f5b5e139f000000000000000000000000000000000000000000000000000000007bffffffffffffffffffffffffffffffffffffffffffffffffffffffff1916827bffffffffffffffffffffffffffffffffffffffffffffffffffffffff1916145b80610942575061094182611916565b5b9050919050565b60606000805461095890613bce565b80601f016020809104026020016040519081016040528092919081815260200182805461098490613bce565b80156109d15780601f106109a6576101008083540402835291602001916109d1565b820191906000526020600020905b8154815290600101906020018083116109b457829003601f168201915b5050505050905090565b60006109e682611980565b6004600083815260200190815260200160002060009054906101000a900473ffffffffffffffffffffffffffffffffffffffff169050919050565b6000610a2c82610f54565b90508073ffffffffffffffffffffffffffffffffffffffff168373ffffffffffffffffffffffffffffffffffffffff161415610a9d576040517f08c379a0000000000000000000000000000000000000000000000000000000008152600401610a9490613883565b60405180910390fd5b8073ffffffffffffffffffffffffffffffffffffffff16610abc6119cb565b73ffffffffffffffffffffffffffffffffffffffff161480610aeb5750610aea81610ae56119cb565b611750565b5b610b2a576040517f08c379a0000000000000000000000000000000000000000000000000000000008152600401610b21906138a3565b60405180910390fd5b610b3483836119d3565b505050565b60606000610b476007611a8c565b90506000610b54336110b4565b905060008167ffffffffffffffff811115610b7257610b71613d36565b5b604051908082528060200260200182016040528015610ba05781602001602082028036833780820191505090505b5090506000805b84811015610c45576000600182610bbe9190613a6d565b90503373ffffffffffffffffffffffffffffffffffffffff16610be082610f54565b73ffffffffffffffffffffffffffffffffffffffff1614610c015750610c32565b80848481518110610c1557610c14613d07565b5b602002602001018181525050600183610c2e9190613a6d565b9250505b8080610c3d90613c31565b915050610ba7565b508194505050505090565b610c58612a6d565b610c6182611a9a565b610c6a57600080fd5b600860008381526020019081526020016000206040518060a00160405290816000820154815260200160018201548152602001600282018054610cac90613bce565b80601f0160208091040260200160405190810160405280929190818152602001828054610cd890613bce565b8015610d255780601f10610cfa57610100808354040283529160200191610d25565b820191906000526020600020905b815481529060010190602001808311610d0857829003601f168201915b50505050508152602001600382018054610d3e90613bce565b80601f0160208091040260200160405190810160405280929190818152602001828054610d6a90613bce565b8015610db75780601f10610d8c57610100808354040283529160200191610db7565b820191906000526020600020905b815481529060010190602001808311610d9a57829003601f168201915b505050505081526020016004820160009054906101000a900460ff1615151515815250509050919050565b610df3610ded6119cb565b82611adb565b610e32576040517f08c379a0000000000000000000000000000000000000000000000000000000008152600401610e2990613703565b60405180910390fd5b610e3d838383611b70565b505050565b6000610e4c611e6a565b60008311610e5957600080fd5b610e636007611ee8565b6000610e6f6007611a8c565b9050610e7b8782611efe565b336009600083815260200190815260200160002060006101000a81548173ffffffffffffffffffffffffffffffffffffffff021916908373ffffffffffffffffffffffffffffffffffffffff16021790555060006040518060a001604052808381526020018681526020018781526020018881526020018515158152509050610f04828261211c565b819250505095945050505050565b610f2d838383604051806020016040528060008152506114c4565b505050565b610f3a611e6a565b80600a9080519060200190610f50929190612a9e565b5050565b600080610f60836121fe565b9050600073ffffffffffffffffffffffffffffffffffffffff168173ffffffffffffffffffffffffffffffffffffffff161415610fd2576040517f08c379a0000000000000000000000000000000000000000000000000000000008152600401610fc990613863565b60405180910390fd5b80915050919050565b610fe483611a9a565b611023576040517f08c379a000000000000000000000000000000000000000000000000000000000815260040161101a906138c3565b60405180910390fd5b6000811161103057600080fd5b6110386119cb565b73ffffffffffffffffffffffffffffffffffffffff1661105784610f54565b73ffffffffffffffffffffffffffffffffffffffff161461107757600080fd5b816008600085815260200190815260200160002060040160006101000a81548160ff0219169083151502179055506110af83826117e4565b505050565b60008073ffffffffffffffffffffffffffffffffffffffff168273ffffffffffffffffffffffffffffffffffffffff161415611125576040517f08c379a000000000000000000000000000000000000000000000000000000000815260040161111c906137e3565b60405180910390fd5b600360008373ffffffffffffffffffffffffffffffffffffffff1673ffffffffffffffffffffffffffffffffffffffff168152602001908152602001600020549050919050565b611174611e6a565b61117e600061223b565b565b6000600660009054906101000a900473ffffffffffffffffffffffffffffffffffffffff16905090565b606060006111b86007611a8c565b67ffffffffffffffff8111156111d1576111d0613d36565b5b60405190808252806020026020018201604052801561120a57816020015b6111f7612a6d565b8152602001906001900390816111ef5790505b509050600080600190505b60016112216007611a8c565b61122b9190613a6d565b81101561141357600115156008600083815260200190815260200160002060040160009054906101000a900460ff161515141561140057600860008281526020019081526020016000206040518060a001604052908160008201548152602001600182015481526020016002820180546112a490613bce565b80601f01602080910402602001604051908101604052809291908181526020018280546112d090613bce565b801561131d5780601f106112f25761010080835404028352916020019161131d565b820191906000526020600020905b81548152906001019060200180831161130057829003601f168201915b5050505050815260200160038201805461133690613bce565b80601f016020809104026020016040519081016040528092919081815260200182805461136290613bce565b80156113af5780601f10611384576101008083540402835291602001916113af565b820191906000526020600020905b81548152906001019060200180831161139257829003601f168201915b505050505081526020016004820160009054906101000a900460ff1615151515815250508383815181106113e6576113e5613d07565b5b602002602001018190525081806113fc90613c31565b9250505b808061140b90613c31565b915050611215565b50819250505090565b60606001805461142b90613bce565b80601f016020809104026020016040519081016040528092919081815260200182805461145790613bce565b80156114a45780601f10611479576101008083540402835291602001916114a4565b820191906000526020600020905b81548152906001019060200180831161148757829003601f168201915b5050505050905090565b6114c06114b96119cb565b8383612301565b5050565b6114d56114cf6119cb565b83611adb565b611514576040517f08c379a000000000000000000000000000000000000000000000000000000000815260040161150b90613703565b60405180910390fd5b6115208484848461246e565b50505050565b600073ffffffffffffffffffffffffffffffffffffffff163373ffffffffffffffffffffffffffffffffffffffff1614158015611597575061156781610f54565b73ffffffffffffffffffffffffffffffffffffffff163373ffffffffffffffffffffffffffffffffffffffff1614155b6115a057600080fd5b60086000828152602001908152602001600020600101543410156115c357600080fd5b60006115ce82610f54565b90508073ffffffffffffffffffffffffffffffffffffffff166108fc349081150290604051600060405180830381858888f19350505050158015611616573d6000803e3d6000fd5b506116228160016114ae565b61162d813384611b70565b60006008600084815260200190815260200160002060040160006101000a81548160ff0219169083151502179055505050565b606061166b82611980565b60006116756124ca565b9050600081511161169557604051806020016040528060008152506116c0565b8061169f8461255c565b6040516020016116b09291906135f7565b6040516020818303038152906040525b915050919050565b6116d182611a9a565b6116da57600080fd5b6116e26119cb565b73ffffffffffffffffffffffffffffffffffffffff1661170183610f54565b73ffffffffffffffffffffffffffffffffffffffff161461172157600080fd5b8060086000848152602001908152602001600020600301908051906020019061174b929190612a9e565b505050565b6000600560008473ffffffffffffffffffffffffffffffffffffffff1673ffffffffffffffffffffffffffffffffffffffff16815260200190815260200160002060008373ffffffffffffffffffffffffffffffffffffffff1673ffffffffffffffffffffffffffffffffffffffff16815260200190815260200160002060009054906101000a900460ff16905092915050565b6117ed82611a9a565b61182c576040517f08c379a000000000000000000000000000000000000000000000000000000000815260040161182390613843565b60405180910390fd5b6118346119cb565b73ffffffffffffffffffffffffffffffffffffffff1661185383610f54565b73ffffffffffffffffffffffffffffffffffffffff161461187357600080fd5b8060086000848152602001908152602001600020600101819055505050565b61189a611e6a565b600073ffffffffffffffffffffffffffffffffffffffff168173ffffffffffffffffffffffffffffffffffffffff16141561190a576040517f08c379a000000000000000000000000000000000000000000000000000000000815260040161190190613743565b60405180910390fd5b6119138161223b565b50565b60007f01ffc9a7000000000000000000000000000000000000000000000000000000007bffffffffffffffffffffffffffffffffffffffffffffffffffffffff1916827bffffffffffffffffffffffffffffffffffffffffffffffffffffffff1916149050919050565b61198981611a9a565b6119c8576040517f08c379a00000000000000000000000000000000000000000000000000000000081526004016119bf90613863565b60405180910390fd5b50565b600033905090565b816004600083815260200190815260200160002060006101000a81548173ffffffffffffffffffffffffffffffffffffffff021916908373ffffffffffffffffffffffffffffffffffffffff160217905550808273ffffffffffffffffffffffffffffffffffffffff16611a4683610f54565b73ffffffffffffffffffffffffffffffffffffffff167f8c5be1e5ebec7d5bd14f71427d1e84f3dd0314c0f7b2291e5b200ac8c7c3b92560405160405180910390a45050565b600081600001549050919050565b60008073ffffffffffffffffffffffffffffffffffffffff16611abc836121fe565b73ffffffffffffffffffffffffffffffffffffffff1614159050919050565b600080611ae783610f54565b90508073ffffffffffffffffffffffffffffffffffffffff168473ffffffffffffffffffffffffffffffffffffffff161480611b295750611b288185611750565b5b80611b6757508373ffffffffffffffffffffffffffffffffffffffff16611b4f846109db565b73ffffffffffffffffffffffffffffffffffffffff16145b91505092915050565b8273ffffffffffffffffffffffffffffffffffffffff16611b9082610f54565b73ffffffffffffffffffffffffffffffffffffffff1614611be6576040517f08c379a0000000000000000000000000000000000000000000000000000000008152600401611bdd90613763565b60405180910390fd5b600073ffffffffffffffffffffffffffffffffffffffff168273ffffffffffffffffffffffffffffffffffffffff161415611c56576040517f08c379a0000000000000000000000000000000000000000000000000000000008152600401611c4d906137a3565b60405180910390fd5b611c638383836001612634565b8273ffffffffffffffffffffffffffffffffffffffff16611c8382610f54565b73ffffffffffffffffffffffffffffffffffffffff1614611cd9576040517f08c379a0000000000000000000000000000000000000000000000000000000008152600401611cd090613763565b60405180910390fd5b6004600082815260200190815260200160002060006101000a81549073ffffffffffffffffffffffffffffffffffffffff02191690556001600360008573ffffffffffffffffffffffffffffffffffffffff1673ffffffffffffffffffffffffffffffffffffffff168152602001908152602001600020600082825403925050819055506001600360008473ffffffffffffffffffffffffffffffffffffffff1673ffffffffffffffffffffffffffffffffffffffff16815260200190815260200160002060008282540192505081905550816002600083815260200190815260200160002060006101000a81548173ffffffffffffffffffffffffffffffffffffffff021916908373ffffffffffffffffffffffffffffffffffffffff160217905550808273ffffffffffffffffffffffffffffffffffffffff168473ffffffffffffffffffffffffffffffffffffffff167fddf252ad1be2c89b69c2b068fc378daa952ba7f163c4a11628f55a4df523b3ef60405160405180910390a4611e65838383600161275a565b505050565b611e726119cb565b73ffffffffffffffffffffffffffffffffffffffff16611e90611180565b73ffffffffffffffffffffffffffffffffffffffff1614611ee6576040517f08c379a0000000000000000000000000000000000000000000000000000000008152600401611edd90613823565b60405180910390fd5b565b6001816000016000828254019250508190555050565b600073ffffffffffffffffffffffffffffffffffffffff168273ffffffffffffffffffffffffffffffffffffffff161415611f6e576040517f08c379a0000000000000000000000000000000000000000000000000000000008152600401611f6590613803565b60405180910390fd5b611f7781611a9a565b15611fb7576040517f08c379a0000000000000000000000000000000000000000000000000000000008152600401611fae90613783565b60405180910390fd5b611fc5600083836001612634565b611fce81611a9a565b1561200e576040517f08c379a000000000000000000000000000000000000000000000000000000000815260040161200590613783565b60405180910390fd5b6001600360008473ffffffffffffffffffffffffffffffffffffffff1673ffffffffffffffffffffffffffffffffffffffff16815260200190815260200160002060008282540192505081905550816002600083815260200190815260200160002060006101000a81548173ffffffffffffffffffffffffffffffffffffffff021916908373ffffffffffffffffffffffffffffffffffffffff160217905550808273ffffffffffffffffffffffffffffffffffffffff16600073ffffffffffffffffffffffffffffffffffffffff167fddf252ad1be2c89b69c2b068fc378daa952ba7f163c4a11628f55a4df523b3ef60405160405180910390a461211860008383600161275a565b5050565b61212582611a9a565b61212e57600080fd5b6121366119cb565b73ffffffffffffffffffffffffffffffffffffffff1661215583610f54565b73ffffffffffffffffffffffffffffffffffffffff161461217557600080fd5b8060086000848152602001908152602001600020600082015181600001556020820151816001015560408201518160020190805190602001906121b9929190612a9e565b5060608201518160030190805190602001906121d6929190612a9e565b5060808201518160040160006101000a81548160ff0219169083151502179055509050505050565b60006002600083815260200190815260200160002060009054906101000a900473ffffffffffffffffffffffffffffffffffffffff169050919050565b6000600660009054906101000a900473ffffffffffffffffffffffffffffffffffffffff16905081600660006101000a81548173ffffffffffffffffffffffffffffffffffffffff021916908373ffffffffffffffffffffffffffffffffffffffff1602179055508173ffffffffffffffffffffffffffffffffffffffff168173ffffffffffffffffffffffffffffffffffffffff167f8be0079c531659141344cd1fd0a4f28419497f9722a3daafe3b4186f6b6457e060405160405180910390a35050565b8173ffffffffffffffffffffffffffffffffffffffff168373ffffffffffffffffffffffffffffffffffffffff161415612370576040517f08c379a0000000000000000000000000000000000000000000000000000000008152600401612367906137c3565b60405180910390fd5b80600560008573ffffffffffffffffffffffffffffffffffffffff1673ffffffffffffffffffffffffffffffffffffffff16815260200190815260200160002060008473ffffffffffffffffffffffffffffffffffffffff1673ffffffffffffffffffffffffffffffffffffffff16815260200190815260200160002060006101000a81548160ff0219169083151502179055508173ffffffffffffffffffffffffffffffffffffffff168373ffffffffffffffffffffffffffffffffffffffff167f17307eab39ab6107e8899845ad3d59bd9653f200f220920489ca2b5937696c318360405161246191906136c6565b60405180910390a3505050565b612479848484611b70565b61248584848484612760565b6124c4576040517f08c379a00000000000000000000000000000000000000000000000000000000081526004016124bb90613723565b60405180910390fd5b50505050565b6060600a80546124d990613bce565b80601f016020809104026020016040519081016040528092919081815260200182805461250590613bce565b80156125525780601f1061252757610100808354040283529160200191612552565b820191906000526020600020905b81548152906001019060200180831161253557829003601f168201915b5050505050905090565b60606000600161256b846128f7565b01905060008167ffffffffffffffff81111561258a57612589613d36565b5b6040519080825280601f01601f1916602001820160405280156125bc5781602001600182028036833780820191505090505b509050600082602001820190505b600115612629578080600190039150507f3031323334353637383961626364656600000000000000000000000000000000600a86061a8153600a858161261357612612613ca9565b5b049450600085141561262457612629565b6125ca565b819350505050919050565b600181111561275457600073ffffffffffffffffffffffffffffffffffffffff168473ffffffffffffffffffffffffffffffffffffffff16146126c85780600360008673ffffffffffffffffffffffffffffffffffffffff1673ffffffffffffffffffffffffffffffffffffffff16815260200190815260200160002060008282546126c09190613ac3565b925050819055505b600073ffffffffffffffffffffffffffffffffffffffff168373ffffffffffffffffffffffffffffffffffffffff16146127535780600360008573ffffffffffffffffffffffffffffffffffffffff1673ffffffffffffffffffffffffffffffffffffffff168152602001908152602001600020600082825461274b9190613a6d565b925050819055505b5b50505050565b50505050565b60006127818473ffffffffffffffffffffffffffffffffffffffff16612a4a565b156128ea578373ffffffffffffffffffffffffffffffffffffffff1663150b7a026127aa6119cb565b8786866040518563ffffffff1660e01b81526004016127cc9493929190613636565b602060405180830381600087803b1580156127e657600080fd5b505af192505050801561281757506040513d601f19601f820116820180604052508101906128149190612f38565b60015b61289a573d8060008114612847576040519150601f19603f3d011682016040523d82523d6000602084013e61284c565b606091505b50600081511415612892576040517f08c379a000000000000000000000000000000000000000000000000000000000815260040161288990613723565b60405180910390fd5b805181602001fd5b63150b7a0260e01b7bffffffffffffffffffffffffffffffffffffffffffffffffffffffff1916817bffffffffffffffffffffffffffffffffffffffffffffffffffffffff1916149150506128ef565b600190505b949350505050565b600080600090507a184f03e93ff9f4daa797ed6e38ed64bf6a1f0100000000000000008310612955577a184f03e93ff9f4daa797ed6e38ed64bf6a1f010000000000000000838161294b5761294a613ca9565b5b0492506040810190505b6d04ee2d6d415b85acef81000000008310612992576d04ee2d6d415b85acef8100000000838161298857612987613ca9565b5b0492506020810190505b662386f26fc1000083106129c157662386f26fc1000083816129b7576129b6613ca9565b5b0492506010810190505b6305f5e10083106129ea576305f5e10083816129e0576129df613ca9565b5b0492506008810190505b6127108310612a0f576127108381612a0557612a04613ca9565b5b0492506004810190505b60648310612a325760648381612a2857612a27613ca9565b5b0492506002810190505b600a8310612a41576001810190505b80915050919050565b6000808273ffffffffffffffffffffffffffffffffffffffff163b119050919050565b6040518060a00160405280600081526020016000815260200160608152602001606081526020016000151581525090565b828054612aaa90613bce565b90600052602060002090601f016020900481019282612acc5760008555612b13565b82601f10612ae557805160ff1916838001178555612b13565b82800160010185558215612b13579182015b82811115612b12578251825591602001919060010190612af7565b5b509050612b209190612b24565b5090565b5b80821115612b3d576000816000905550600101612b25565b5090565b6000612b54612b4f84613945565b613920565b905082815260208101848484011115612b7057612b6f613d6a565b5b612b7b848285613b8c565b509392505050565b6000612b96612b9184613976565b613920565b905082815260208101848484011115612bb257612bb1613d6a565b5b612bbd848285613b8c565b509392505050565b600081359050612bd48161416d565b612bdd81613af7565b905092915050565b600081359050612bf481614184565b92915050565b600081359050612c098161419b565b92915050565b600081519050612c1e8161419b565b92915050565b600082601f830112612c3957612c38613d65565b5b8135612c49848260208601612b41565b91505092915050565b600082601f830112612c6757612c66613d65565b5b8135612c77848260208601612b83565b91505092915050565b600081359050612c8f816141b2565b92915050565b600060208284031215612cab57612caa613d74565b5b6000612cb984828501612bc5565b91505092915050565b60008060408385031215612cd957612cd8613d74565b5b6000612ce785828601612bc5565b9250506020612cf885828601612bc5565b9150509250929050565b600080600060608486031215612d1b57612d1a613d74565b5b6000612d2986828701612bc5565b9350506020612d3a86828701612bc5565b9250506040612d4b86828701612c80565b9150509250925092565b60008060008060808587031215612d6f57612d6e613d74565b5b6000612d7d87828801612bc5565b9450506020612d8e87828801612bc5565b9350506040612d9f87828801612c80565b925050606085013567ffffffffffffffff811115612dc057612dbf613d6f565b5b612dcc87828801612c24565b91505092959194509250565b60008060408385031215612def57612dee613d74565b5b6000612dfd85828601612bc5565b9250506020612e0e85828601612be5565b9150509250929050565b600080600080600060a08688031215612e3457612e33613d74565b5b6000612e4288828901612bc5565b955050602086013567ffffffffffffffff811115612e6357612e62613d6f565b5b612e6f88828901612c52565b945050604086013567ffffffffffffffff811115612e9057612e8f613d6f565b5b612e9c88828901612c52565b9350506060612ead88828901612c80565b9250506080612ebe88828901612be5565b9150509295509295909350565b60008060408385031215612ee257612ee1613d74565b5b6000612ef085828601612bc5565b9250506020612f0185828601612c80565b9150509250929050565b600060208284031215612f2157612f20613d74565b5b6000612f2f84828501612bfa565b91505092915050565b600060208284031215612f4e57612f4d613d74565b5b6000612f5c84828501612c0f565b91505092915050565b600060208284031215612f7b57612f7a613d74565b5b600082013567ffffffffffffffff811115612f9957612f98613d6f565b5b612fa584828501612c52565b91505092915050565b600060208284031215612fc457612fc3613d74565b5b6000612fd284828501612c80565b91505092915050565b600080600060608486031215612ff457612ff3613d74565b5b600061300286828701612c80565b935050602061301386828701612be5565b925050604061302486828701612c80565b9150509250925092565b6000806040838503121561304557613044613d74565b5b600061305385828601612c80565b925050602083013567ffffffffffffffff81111561307457613073613d6f565b5b61308085828601612c52565b9150509250929050565b600080604083850312156130a1576130a0613d74565b5b60006130af85828601612c80565b92505060206130c085828601612c80565b9150509250929050565b60006130d683836134df565b905092915050565b60006130ea83836135d9565b60208301905092915050565b6130ff81613af7565b82525050565b6000613110826139c7565b61311a8185613a0d565b93508360208202850161312c856139a7565b8060005b85811015613168578484038952815161314985826130ca565b9450613154836139f3565b925060208a01995050600181019050613130565b50829750879550505050505092915050565b6000613185826139d2565b61318f8185613a1e565b935061319a836139b7565b8060005b838110156131cb5781516131b288826130de565b97506131bd83613a00565b92505060018101905061319e565b5085935050505092915050565b6131e181613b09565b82525050565b6131f081613b09565b82525050565b6000613201826139dd565b61320b8185613a2f565b935061321b818560208601613b9b565b61322481613d79565b840191505092915050565b600061323a826139e8565b6132448185613a40565b9350613254818560208601613b9b565b61325d81613d79565b840191505092915050565b6000613273826139e8565b61327d8185613a51565b935061328d818560208601613b9b565b61329681613d79565b840191505092915050565b60006132ac826139e8565b6132b68185613a62565b93506132c6818560208601613b9b565b80840191505092915050565b60006132df602d83613a51565b91506132ea82613d8a565b604082019050919050565b6000613302603283613a51565b915061330d82613dd9565b604082019050919050565b6000613325602683613a51565b915061333082613e28565b604082019050919050565b6000613348602583613a51565b915061335382613e77565b604082019050919050565b600061336b601c83613a51565b915061337682613ec6565b602082019050919050565b600061338e602483613a51565b915061339982613eef565b604082019050919050565b60006133b1601983613a51565b91506133bc82613f3e565b602082019050919050565b60006133d4602983613a51565b91506133df82613f67565b604082019050919050565b60006133f7602083613a51565b915061340282613fb6565b602082019050919050565b600061341a602083613a51565b915061342582613fdf565b602082019050919050565b600061343d602e83613a51565b915061344882614008565b604082019050919050565b6000613460601883613a51565b915061346b82614057565b602082019050919050565b6000613483602183613a51565b915061348e82614080565b604082019050919050565b60006134a6603d83613a51565b91506134b1826140cf565b604082019050919050565b60006134c9602d83613a51565b91506134d48261411e565b604082019050919050565b600060a0830160008301516134f760008601826135d9565b50602083015161350a60208601826135d9565b5060408301518482036040860152613522828261322f565b9150506060830151848203606086015261353c828261322f565b915050608083015161355160808601826131d8565b508091505092915050565b600060a08301600083015161357460008601826135d9565b50602083015161358760208601826135d9565b506040830151848203604086015261359f828261322f565b915050606083015184820360608601526135b9828261322f565b91505060808301516135ce60808601826131d8565b508091505092915050565b6135e281613b82565b82525050565b6135f181613b82565b82525050565b600061360382856132a1565b915061360f82846132a1565b91508190509392505050565b600060208201905061363060008301846130f6565b92915050565b600060808201905061364b60008301876130f6565b61365860208301866130f6565b61366560408301856135e8565b818103606083015261367781846131f6565b905095945050505050565b6000602082019050818103600083015261369c8184613105565b905092915050565b600060208201905081810360008301526136be818461317a565b905092915050565b60006020820190506136db60008301846131e7565b92915050565b600060208201905081810360008301526136fb8184613268565b905092915050565b6000602082019050818103600083015261371c816132d2565b9050919050565b6000602082019050818103600083015261373c816132f5565b9050919050565b6000602082019050818103600083015261375c81613318565b9050919050565b6000602082019050818103600083015261377c8161333b565b9050919050565b6000602082019050818103600083015261379c8161335e565b9050919050565b600060208201905081810360008301526137bc81613381565b9050919050565b600060208201905081810360008301526137dc816133a4565b9050919050565b600060208201905081810360008301526137fc816133c7565b9050919050565b6000602082019050818103600083015261381c816133ea565b9050919050565b6000602082019050818103600083015261383c8161340d565b9050919050565b6000602082019050818103600083015261385c81613430565b9050919050565b6000602082019050818103600083015261387c81613453565b9050919050565b6000602082019050818103600083015261389c81613476565b9050919050565b600060208201905081810360008301526138bc81613499565b9050919050565b600060208201905081810360008301526138dc816134bc565b9050919050565b600060208201905081810360008301526138fd818461355c565b905092915050565b600060208201905061391a60008301846135e8565b92915050565b600061392a61393b565b90506139368282613c00565b919050565b6000604051905090565b600067ffffffffffffffff8211156139605761395f613d36565b5b61396982613d79565b9050602081019050919050565b600067ffffffffffffffff82111561399157613990613d36565b5b61399a82613d79565b9050602081019050919050565b6000819050602082019050919050565b6000819050602082019050919050565b600081519050919050565b600081519050919050565b600081519050919050565b600081519050919050565b6000602082019050919050565b6000602082019050919050565b600082825260208201905092915050565b600082825260208201905092915050565b600082825260208201905092915050565b600082825260208201905092915050565b600082825260208201905092915050565b600081905092915050565b6000613a7882613b82565b9150613a8383613b82565b9250827fffffffffffffffffffffffffffffffffffffffffffffffffffffffffffffffff03821115613ab857613ab7613c7a565b5b828201905092915050565b6000613ace82613b82565b9150613ad983613b82565b925082821015613aec57613aeb613c7a565b5b828203905092915050565b6000613b0282613b41565b9050919050565b60008115159050919050565b60007fffffffff0000000000000000000000000000000000000000000000000000000082169050919050565b600073ffffffffffffffffffffffffffffffffffffffff82169050919050565b600074ffffffffffffffffffffffffffffffffffffffffff82169050919050565b6000819050919050565b82818337600083830152505050565b60005b83811015613bb9578082015181840152602081019050613b9e565b83811115613bc8576000848401525b50505050565b60006002820490506001821680613be657607f821691505b60208210811415613bfa57613bf9613cd8565b5b50919050565b613c0982613d79565b810181811067ffffffffffffffff82111715613c2857613c27613d36565b5b80604052505050565b6000613c3c82613b82565b91507fffffffffffffffffffffffffffffffffffffffffffffffffffffffffffffffff821415613c6f57613c6e613c7a565b5b600182019050919050565b7f4e487b7100000000000000000000000000000000000000000000000000000000600052601160045260246000fd5b7f4e487b7100000000000000000000000000000000000000000000000000000000600052601260045260246000fd5b7f4e487b7100000000000000000000000000000000000000000000000000000000600052602260045260246000fd5b7f4e487b7100000000000000000000000000000000000000000000000000000000600052603260045260246000fd5b7f4e487b7100000000000000000000000000000000000000000000000000000000600052604160045260246000fd5b600080fd5b600080fd5b600080fd5b600080fd5b6000601f19601f8301169050919050565b7f4552433732313a2063616c6c6572206973206e6f7420746f6b656e206f776e6560008201527f72206f7220617070726f76656400000000000000000000000000000000000000602082015250565b7f4552433732313a207472616e7366657220746f206e6f6e20455243373231526560008201527f63656976657220696d706c656d656e7465720000000000000000000000000000602082015250565b7f4f776e61626c653a206e6577206f776e657220697320746865207a65726f206160008201527f6464726573730000000000000000000000000000000000000000000000000000602082015250565b7f4552433732313a207472616e736665722066726f6d20696e636f72726563742060008201527f6f776e6572000000000000000000000000000000000000000000000000000000602082015250565b7f4552433732313a20746f6b656e20616c7265616479206d696e74656400000000600082015250565b7f4552433732313a207472616e7366657220746f20746865207a65726f2061646460008201527f7265737300000000000000000000000000000000000000000000000000000000602082015250565b7f4552433732313a20617070726f766520746f2063616c6c657200000000000000600082015250565b7f4552433732313a2061646472657373207a65726f206973206e6f74206120766160008201527f6c6964206f776e65720000000000000000000000000000000000000000000000602082015250565b7f4552433732313a206d696e7420746f20746865207a65726f2061646472657373600082015250565b7f4f776e61626c653a2063616c6c6572206973206e6f7420746865206f776e6572600082015250565b7f4552433732314d657461646174613a20507269636520736574206f66206e6f6e60008201527f6578697374656e7420746f6b656e000000000000000000000000000000000000602082015250565b7f4552433732313a20696e76616c696420746f6b656e2049440000000000000000600082015250565b7f4552433732313a20617070726f76616c20746f2063757272656e74206f776e6560008201527f7200000000000000000000000000000000000000000000000000000000000000602082015250565b7f4552433732313a20617070726f76652063616c6c6572206973206e6f7420746f60008201527f6b656e206f776e6572206f7220617070726f76656420666f7220616c6c000000602082015250565b7f4552433732314d657461646174613a2053616c6520736574206f66206e6f6e6560008201527f78697374656e7420746f6b656e00000000000000000000000000000000000000602082015250565b61417681613b61565b811461418157600080fd5b50565b61418d81613b09565b811461419857600080fd5b50565b6141a481613b15565b81146141af57600080fd5b50565b6141bb81613b82565b81146141c657600080fd5b5056fea26474726f6e582212202d6f0662fcd5729d30423bb261a99d55d3bd02e31e86ad442018109deeb7827c64736f6c63430008060033",
  "source": "// SPDX-License-Identifier: MIT\npragma solidity >=0.8.4;\npragma experimental ABIEncoderV2;\n\nimport '../node_modules/@openzeppelin/contracts/token/ERC721/ERC721.sol';\nimport '../node_modules/@openzeppelin/contracts/access/Ownable.sol';\nimport '../node_modules/@openzeppelin/contracts/utils/Counters.sol';\n\ncontract Zombax is ERC721, Ownable {\n    using Counters for Counters.Counter;\n    Counters.Counter private _tokenIds;\n    mapping(uint256 => TokenMeta) private _tokenMeta;\n    mapping(uint256 => address) private _creators;\n\n    string baseURI;\n\n    struct TokenMeta {\n        uint256 id;\n        uint256 price;\n        string name;\n        string uri;\n        bool isOnSale;\n    }\n\n    constructor() ERC721('Zombax SMASHERs', 'SMASHER') {}\n\n    function _baseURI() internal view virtual override returns (string memory) {\n        return baseURI;\n    }\n\n    function setBaseURI(string memory _newBaseURI) public virtual onlyOwner {\n        baseURI = _newBaseURI;\n    }\n\n    function getAllOnSale() public view virtual returns (TokenMeta[] memory) {\n        TokenMeta[] memory tokensOnSale = new TokenMeta[](_tokenIds.current());\n        uint256 counter = 0;\n        for (uint256 i = 1; i < _tokenIds.current() + 1; i++) {\n            if (_tokenMeta[i].isOnSale == true) {\n                tokensOnSale[counter] = _tokenMeta[i];\n                counter++;\n            }\n        }\n        return tokensOnSale;\n    }\n\n    function setTokenSale(\n        uint256 _tokenId,\n        bool _isOnSale,\n        uint256 _price\n    ) public {\n        require(_exists(_tokenId), 'ERC721Metadata: Sale set of nonexistent token');\n        require(_price > 0);\n        require(ownerOf(_tokenId) == _msgSender());\n        _tokenMeta[_tokenId].isOnSale = _isOnSale;\n        setTokenPrice(_tokenId, _price);\n    }\n\n    function setTokenPrice(uint256 _tokenId, uint256 _price) public {\n        require(_exists(_tokenId), 'ERC721Metadata: Price set of nonexistent token');\n        require(ownerOf(_tokenId) == _msgSender());\n        _tokenMeta[_tokenId].price = _price;\n    }\n\n    function _setTokenMeta(uint256 _tokenId, TokenMeta memory _meta) private {\n        require(_exists(_tokenId));\n        require(ownerOf(_tokenId) == _msgSender());\n        _tokenMeta[_tokenId] = _meta;\n    }\n\n    function updateTokenUri(uint256 _tokenId, string memory _uri) public {\n        require(_exists(_tokenId));\n        require(ownerOf(_tokenId) == _msgSender());\n        _tokenMeta[_tokenId].uri = _uri;\n    }\n\n    function tokenMeta(uint256 _tokenId) public view returns (TokenMeta memory) {\n        require(_exists(_tokenId));\n        return _tokenMeta[_tokenId];\n    }\n\n    function purchaseToken(uint256 _tokenId) public payable {\n        require(msg.sender != address(0) && msg.sender != ownerOf(_tokenId));\n        require(msg.value >= _tokenMeta[_tokenId].price);\n        address tokenSeller = ownerOf(_tokenId);\n        payable(tokenSeller).transfer(msg.value);\n        setApprovalForAll(tokenSeller, true);\n        _transfer(tokenSeller, msg.sender, _tokenId);\n        _tokenMeta[_tokenId].isOnSale = false;\n    }\n\n    function mintCollectable(\n        address _owner,\n        string memory _tokenURI,\n        string memory _name,\n        uint256 _price,\n        bool _isOnSale\n    ) public onlyOwner returns (uint256) {\n        require(_price > 0);\n        _tokenIds.increment();\n        uint256 newItemId = _tokenIds.current();\n        _mint(_owner, newItemId);\n        _creators[newItemId] = msg.sender;\n        TokenMeta memory meta = TokenMeta(newItemId, _price, _name, _tokenURI, _isOnSale);\n        _setTokenMeta(newItemId, meta);\n        return newItemId;\n    }\n\n    function getTokensOwnedByMe() public view returns (uint256[] memory) {\n        uint256 numberOfExistingTokens = _tokenIds.current();\n        uint256 numberOfTokensOwned = balanceOf(msg.sender);\n        uint256[] memory ownedTokenIds = new uint256[](numberOfTokensOwned);\n\n        uint256 currentIndex = 0;\n        for (uint256 i = 0; i < numberOfExistingTokens; i++) {\n            uint256 tokenId = i + 1;\n            if (ownerOf(tokenId) != msg.sender) continue;\n            ownedTokenIds[currentIndex] = tokenId;\n            currentIndex += 1;\n        }\n\n        return ownedTokenIds;\n    }\n}\n",
  "sourcePath": "/Users/lol/apps/fun/zombax.io/src/contracts-tron/contracts/Zombax.sol",
  "compiler": {
    "name": "solc",
    "version": "0.8.6+commit.0e36fba0.mod.Emscripten.clang"
  },
  "schemaVersion": "2.0.1",
  "updatedAt": "2022-11-11T11:43:27.720Z"
}